{
  "contractName": "Election",
  "abi": [
    {
      "inputs": [],
      "payable": false,
      "stateMutability": "nonpayable",
      "type": "constructor"
    },
    {
      "anonymous": false,
      "inputs": [
        {
          "indexed": true,
          "internalType": "uint256",
          "name": "_candidateId",
          "type": "uint256"
        }
      ],
      "name": "votedEvent",
      "type": "event"
    },
    {
      "constant": true,
      "inputs": [
        {
          "internalType": "uint256",
          "name": "",
          "type": "uint256"
        }
      ],
      "name": "candidates",
      "outputs": [
        {
          "internalType": "uint256",
          "name": "id",
          "type": "uint256"
        },
        {
          "internalType": "string",
          "name": "name",
          "type": "string"
        },
        {
          "internalType": "uint256",
          "name": "voteCount",
          "type": "uint256"
        }
      ],
      "payable": false,
      "stateMutability": "view",
      "type": "function"
    },
    {
      "constant": true,
      "inputs": [],
      "name": "candidatesCount",
      "outputs": [
        {
          "internalType": "uint256",
          "name": "",
          "type": "uint256"
        }
      ],
      "payable": false,
      "stateMutability": "view",
      "type": "function"
    },
    {
      "constant": true,
      "inputs": [
        {
          "internalType": "address",
          "name": "",
          "type": "address"
        }
      ],
      "name": "voters",
      "outputs": [
        {
          "internalType": "bool",
          "name": "",
          "type": "bool"
        }
      ],
      "payable": false,
      "stateMutability": "view",
      "type": "function"
    },
    {
      "constant": false,
      "inputs": [
        {
          "internalType": "uint256",
          "name": "_candidateId",
          "type": "uint256"
        }
      ],
      "name": "vote",
      "outputs": [],
      "payable": false,
      "stateMutability": "nonpayable",
      "type": "function"
    },
    {
      "constant": true,
      "inputs": [
        {
          "internalType": "uint256",
          "name": "_candidateId",
          "type": "uint256"
        }
      ],
      "name": "getVote",
      "outputs": [
        {
          "internalType": "uint256",
          "name": "",
          "type": "uint256"
        }
      ],
      "payable": false,
      "stateMutability": "view",
      "type": "function"
    }
  ],
  "bytecode": "0x608060405234801561001057600080fd5b506100556040518060400160405280600381526020017f414243000000000000000000000000000000000000000000000000000000000081525061012660201b60201c565b6100996040518060400160405280600381526020017f444546000000000000000000000000000000000000000000000000000000000081525061012660201b60201c565b6100dd6040518060400160405280600381526020017f58595a000000000000000000000000000000000000000000000000000000000081525061012660201b60201c565b6101216040518060400160405280600481526020017f4e6f6e650000000000000000000000000000000000000000000000000000000081525061012660201b60201c565b610247565b6002600081548092919060010191905055506040518060600160405280600254815260200182815260200160008152506001600060025481526020019081526020016000206000820151816000015560208201518160010190805190602001906101919291906101a2565b506040820151816002015590505050565b828054600181600116156101000203166002900490600052602060002090601f016020900481019282601f106101e357805160ff1916838001178555610211565b82800160010185558215610211579182015b828111156102105782518255916020019190600101906101f5565b5b50905061021e9190610222565b5090565b61024491905b80821115610240576000816000905550600101610228565b5090565b90565b61045b806102566000396000f3fe608060405234801561001057600080fd5b50600436106100575760003560e01c80630121b93f1461005c5780632d35a8a21461008a5780633477ee2e146100a85780635a55c1f01461015d578063a3ec138d1461019f575b600080fd5b6100886004803603602081101561007257600080fd5b81019080803590602001909291905050506101fb565b005b610092610319565b6040518082815260200191505060405180910390f35b6100d4600480360360208110156100be57600080fd5b810190808035906020019092919050505061031f565b6040518084815260200180602001838152602001828103825284818151815260200191508051906020019080838360005b83811015610120578082015181840152602081019050610105565b50505050905090810190601f16801561014d5780820380516001836020036101000a031916815260200191505b5094505050505060405180910390f35b6101896004803603602081101561017357600080fd5b81019080803590602001909291905050506103e1565b6040518082815260200191505060405180910390f35b6101e1600480360360208110156101b557600080fd5b81019080803573ffffffffffffffffffffffffffffffffffffffff169060200190929190505050610406565b604051808215151515815260200191505060405180910390f35b6000803373ffffffffffffffffffffffffffffffffffffffff1673ffffffffffffffffffffffffffffffffffffffff16815260200190815260200160002060009054906101000a900460ff161561025157600080fd5b60008111801561026357506002548111155b61026c57600080fd5b60016000803373ffffffffffffffffffffffffffffffffffffffff1673ffffffffffffffffffffffffffffffffffffffff16815260200190815260200160002060006101000a81548160ff0219169083151502179055506001600082815260200190815260200160002060020160008154809291906001019190505550807ffff3c900d938d21d0990d786e819f29b8d05c1ef587b462b939609625b684b1660405160405180910390a250565b60025481565b6001602052806000526040600020600091509050806000015490806001018054600181600116156101000203166002900480601f0160208091040260200160405190810160405280929190818152602001828054600181600116156101000203166002900480156103d15780601f106103a6576101008083540402835291602001916103d1565b820191906000526020600020905b8154815290600101906020018083116103b457829003601f168201915b5050505050908060020154905083565b6000806001600084815260200190815260200160002060020154905080915050919050565b60006020528060005260406000206000915054906101000a900460ff168156fea265627a7a723158208b53bd42bec99c90dc1764d8946d9f1e3b8fe19add371c8a460ab5cf31b3696164736f6c63430005100032",
  "source": "pragma solidity 0.5.16;\r\n\r\ncontract Election {\r\n    struct Candidate{\r\n        uint id;\r\n        string name;\r\n        uint voteCount;\r\n    }\r\n    mapping(address => bool) public voters;\r\n    mapping(uint => Candidate) public candidates;\r\n    uint public candidatesCount;\r\n\r\n    event votedEvent(\r\n        uint indexed _candidateId\r\n    );\r\n    constructor() public{\r\n        addCandidate(\"ABC\");\r\n        addCandidate(\"DEF\");\r\n        addCandidate(\"XYZ\");\r\n        addCandidate(\"None\");\r\n    }\r\n\r\n    function addCandidate(string memory _name) private {\r\n        candidatesCount++;\r\n        candidates[candidatesCount] = Candidate(candidatesCount, _name, 0);\r\n    }\r\n\r\n    function vote(uint _candidateId) public {\r\n        require(!voters[msg.sender]);\r\n        require(_candidateId > 0 && _candidateId <= candidatesCount);\r\n        voters[msg.sender]=true;\r\n        candidates[_candidateId].voteCount++;\r\n        emit votedEvent(_candidateId);\r\n    }\r\n\r\n    function getVote(uint _candidateId) public view returns(uint) {\r\n        uint votes=candidates[_candidateId].voteCount;\r\n        return votes;\r\n    }\r\n}",
  "sourcePath": "D:\\programs\\extras\\Git\\django-voting\\election\\contracts\\Election.sol",
  "compiler": {
    "name": "solc",
    "version": "0.5.16+commit.9c3226ce.Emscripten.clang"
  },
  "schemaVersion": "3.0.23",
  "updatedAt": "2020-05-07T20:06:45.757Z",
  "networkType": "ethereum",
  "devdoc": {
    "methods": {}
  },
  "userdoc": {
    "methods": {}
  }
}